:100000000C942A000C9447000C9447000C94470071
:100010000C9447000C9447000C9447000C94470044
:100020000C9447000C9447000C9447000C94470034
:100030000C9447000C9447000C9447000C94470024
:100040000C940E030C9447000C9447000C9447004A
:100050000C94470011241FBECFE5D8E0DEBFCDBF12
:1000600011E0A0E6B0E0ECEFFCE002C005900D92DC
:10007000A831B107D9F721E0A8E1B1E001C01D9294
:10008000AA35B207E1F70E941F030C947C060C947A
:100090000000009779F58091220190912301892B2E
:1000A000F9F02FE738E341E0215030404040E1F7DC
:1000B00000C00000809124019091250190932101BE
:1000C00080932001109223011092220110921D01B1
:1000D00010921C0181E090E090931B0180931A0123
:1000E0008FEF90E722E0815090402040E1F700C080
:1000F000000008958130910599F7209122013091F7
:100100002301232B69F32FE738E341E021503040EE
:100110004040E1F700C0000020912401309125010A
:1001200030931F0120931E0110922301109222018F
:1001300010921B0110921A0190931D0180931C01D3
:10014000CFCFCF93DF938091200190912101893906
:10015000910508F07BC080912001909121018339A5
:10016000910508F473C080911E0190911F01803A9F
:10017000910508F06BC080911E0190911F01883994
:10018000910508F463C082E090E090931901809398
:10019000180180911E0190911F018939910508F085
:1001A00078C080911E0190911F018339910508F458
:1001B00070C08091200190912101803A910508F052
:1001C00068C080912001909121018839910508F43F
:1001D00060C084E090E090931901809318018091B1
:1001E0001801909119019F938F9386E890E09F9357
:1001F0008F93C6E2D1E0DF93CF930E94B303BE0199
:1002000081E00E94D80220911E0130911F0180914F
:100210002001909121013F932F939F938F938FE81B
:1002200090E09F938F93DF93CF930E94B303BE011F
:1002300080E00E94D8028DB79EB70E960FB6F89454
:100240009EBF0FBE8DBFDF91CF9108958091200199
:10025000909121018F39910508F49BCF8091200165
:1002600090912101843A910508F093CF80911E016D
:1002700090911F01803A910508F08BCF80911E016B
:1002800090911F018839910508F483CF81E090E0B7
:100290007CCF80911E0190911F018F399105C0F094
:1002A00080911E0190911F01843A910588F48091FC
:1002B000200190912101803A910550F48091200114
:1002C000909121018839910518F083E090E083CF67
:1002D0008091200190912101803A910508F07FCF13
:1002E00080912001909121018839910508F477CF00
:1002F00080911E0190911F01803A910508F06FCF07
:1003000080911E0190911F018839910508F467CFF3
:10031000109219011092180162CF8BE990E00E94AF
:1003200043022FEF89E698E1215080409040E1F7A9
:1003300000C0000087EC90E00E9443022FEF89E6A6
:1003400098E1215080409040E1F700C0000080918A
:100350006400909165009F938F9389ED90E09F9347
:100360008F938AE391E09F938F930E94B3038AE374
:1003700091E00E9443022FEF89E698E121508040EE
:100380009040E1F700C0000084EC90E00E9443023E
:100390002FEF84E39CE0215080409040E1F700C0C3
:1003A000000088EE90E00E9443022FEF89E698E17A
:1003B000215080409040E1F700C00000809118017A
:1003C0009091190190936500809364000F900F90B5
:1003D0000F900F900F900F90089580911A019091B7
:1003E0001B01892B19F580916200909163000E9496
:1003F000F80290931D0180931C0190E080E00E9420
:10040000490080911C0190911D01892BC9F48091B4
:100410006000909161000E94F80290931B0180930C
:100420001A0181E090E00E94490008952FEF80E7D3
:1004300092E0215080409040E1F700C00000E1CF01
:100440002FEF80E792E0215080409040E1F700C01C
:10045000000008959B01AC0160E970ED83E090E03D
:100460000E9491032150310929B930BD86E880BD31
:1004700088E18AB908955D9BFECF8CB908955F9B92
:10048000FECF8CB108950F931F93CF938C01C0E0E2
:10049000F801EC0FF11D8081811104C0CF911F91F3
:1004A0000F9108950E943B02CF5FF2CF0F931F93ED
:1004B000CF938C01C0E00E943F02E1E0EC0FD80135
:1004C000AC0FB11D8C938D3079F4E00FF12FF11D3D
:1004D0008AE08083E2E0EC0FE00FF12FF11D108243
:1004E000CF911F910F910895CE2FE5CF81110EC0AE
:1004F000C7980000C69888B3807F88BB88B36F70A8
:10050000682B68BBC59A0000C5980895C79AF1CFBB
:10051000CF93DF93D82FC62F87EB9BE00197F1F79E
:1005200000C0000062956F708D2F0E9476026C2FC4
:100530006F708D2F0E947602DF91CF91089587B35F
:100540008F6087BB88B3807F88BB87B3806F87BB92
:1005500088B38F7088BB2FE788E391E021508040FB
:100560009040E1F700C0000068E280E00E9488024D
:100570006CE080E00E94880261E080E00E948802D6
:100580000895823068F4603158F4811106C06058D3
:100590000E94880281E090E00895605480E0F8CFE6
:1005A00090E080E00895682F81E00E94880208951D
:1005B0000F931F93CF93DF938B0160E00E94C102E2
:1005C000E8010F5E1F4F8991882319F0C017D107EA
:1005D00029F4DF91CF911F910F9108950E94D302CA
:1005E000F2CF1ABA8FEF8BBB88E886B9789408955A
:1005F00017B88230910531F482E687B9369A81E0E6
:1006000090E00895039731F483E687B9369A82E043
:1006100090E00895089585B190E008958F939F9399
:1006200085B190E0909325018093240181E090E0D2
:1006300090932301809322019F918F911895CDB7BC
:10064000DEB7A0970FB6F894DEBF0FBECDBF87E030
:10065000E6E6F0E0DE01119601900D928A95E1F751
:10066000FE01389689E1DF011D928A95E9F70E9423
:10067000F1020E949F0260E875E280E090E00E9433
:100680002A02BE016F5F7F4F80E00E94D802BFEF59
:1006900024E38CE0B15020408040E1F700C000002E
:1006A00086EF90E00E9443029FEFA9E6B8E19150E7
:1006B000A040B040E1F700C000008BEF90E00E9446
:1006C00043022FEF84E39CE0215080409040E1F70B
:1006D00000C000008AE091E00E944302AFEFB4E363
:1006E0002CE0A150B0402040E1F700C000000E9483
:1006F000ED010E94A10086EF90E00E9443028FEF7F
:1007000090E7A2E081509040A040E1F700C00000D7
:1007100080916400909165000D9749F30E948D01CE
:10072000E6CFA1E21A2EAA1BBB1BFD010DC0AA1F1A
:10073000BB1FEE1FFF1FA217B307E407F50720F04A
:10074000A21BB30BE40BF50B661F771F881F991FC5
:100750001A9469F760957095809590959B01AC010E
:10076000BD01CF010895AEE0B0E0E9EBF3E00C94F9
:1007700053060D891E8986E08C831A8309838FEFC7
:100780009FE79E838D83AE01475E5F4F6F89788DB3
:10079000CE0101960E94D6032F813885020F131FC8
:1007A000F80110822E96E4E00C946F06ABE0B0E006
:1007B000ECEDF3E00C9445067C013B018A01FC0161
:1007C00017821682838181FFB9C19AE0292ECE015A
:1007D00001965C01F7019381F30193FD859193FFED
:1007E00081913F01882309F446C1853239F493FD94
:1007F000859193FF81913F01853229F4B70190E003
:100800000E94B705E7CF912C412C512CFFE1F51543
:1008100038F08B3209F188F4803201F1833221F112
:1008200057FC3AC020ED280F2A3040F556FE1FC075
:10083000929C200D1124922E06C08D3291F08033AF
:1008400079F7689450F8F30193FD859193FF8191B6
:100850003F018111DBCF20C0689451F8689452F8B1
:10086000F2CF689453F8EFCF689454F8ECCF429CE1
:10087000200D1124422E689455F8E5CF8E3229F4CC
:1008800056FCF9C0689456F8DECF8C3619F468949B
:1008900057F8D9CF8836B9F2982F9F7D9554933069
:1008A000C0F08336A1F18337C1F1833509F05BC015
:1008B000F801C190D1908F01692D70E056FC02C003
:1008C0006FEF7FEFC6010E94A1054C01689457F8B5
:1008D0000AC00C5F1F4F2FE3298388248394912C37
:1008E0006501E89457F853FC04C04814190409F052
:1008F00018F5342C8114910431F5332009F46ACFB2
:10090000B70180E290E00E94B7053A94F6CFF80173
:10091000808189830E5F1F4FE0CFF801C190D19095
:100920008F01692D70E056FC02C06FEF7FEFC601AA
:100930000E94AC054C01D5CFB70180E290E00E9447
:10094000B7054A94D2CFF60157FC859157FE8191A5
:100950006F01B70190E00E94B70531103A94F1E0C1
:100960008F1A9108C7CF843619F0893609F074C000
:10097000F80157FE6AC061917191819191918F0147
:10098000252D2F76D22E97FF09C0909580957095D2
:1009900061957F4F8F4F9F4F6894D7F82AE030E0E2
:1009A000A5010E94E705C82ECA188C2C5D2CD6FE26
:1009B0000CC0E89450F8C91440F4D4FE05C0D2FC31
:1009C00003C0FD2DFE7E5F2E892C54FE8FC0FE01DC
:1009D000EC0DF11D8081803309F081C0252D297E29
:1009E000522E852D8870382E53FC8FC050FE89C042
:1009F0009C2C841418F44C0C942C981854FE8BC026
:100A0000B70180E390E00E94B70552FE09C088E775
:100A100090E051FE02C088E590E0B7010E94B70562
:100A2000C91408F484C0CA94D12C9FEFC91AD90AFA
:100A3000CA0CDB1CF60182916F01B70190E00E94A5
:100A4000B705AC14BD04B1F758CF61917191072E71
:100A5000000C880B990B93CFD52CE894D4F82AE09E
:100A600030E0853739F1952D997FD92E8F3601F1F8
:100A700048F48835A9F0F701868197812B96E2E149
:100A80000C946106803749F08837A9F7D4FE02C07C
:100A90006894D2F820E130E00DC06894D4F8F6CF25
:100AA00054FE03C0E92FE660DE2E20E132E002C0F2
:100AB00028E030E0F801D7FE0DC06191719181917D
:100AC00091918F01A5010E94E705C82ECA18E894EC
:100AD000D7F86BCF6191719190E080E0F2CF52FC3A
:100AE00002C083947ECF839483947BCF852D8678B8
:100AF00009F477CFF6CFB70180E290E00E94B70506
:100B000083948414C0F3312C79CF342C3818841496
:100B100008F474CFF8CF852D867809F481CF8BE265
:100B200051FE80E257FC8DE2B70190E077CFB7012C
:100B300080E390E00E94B7059A9472CF8FEF9FEF09
:100B40009DCFFC010590615070400110D8F7809551
:100B500090958E0F9F1F0895FC0161507040019089
:100B60000110D8F7809590958E0F9F1F08950F93D1
:100B70001F93CF93DF93182F092FEB018B8181FDFA
:100B800009C01FEF0FEF812F902FDF91CF911F91A1
:100B90000F91089582FF14C02E813F818C819D8129
:100BA000281739073CF4E881F981CF010196998330
:100BB000888310838E819F8101969F838E83E3CFEC
:100BC000E885F985812F0995892BA1F3DACFFA0100
:100BD000AA27283051F1203181F1E8946F936E7F7C
:100BE0006E5F7F4F8F4F9F4FAF4FB1E03ED0B4E06D
:100BF0003CD0670F781F891F9A1FA11D680F791FAE
:100C00008A1F911DA11D6A0F711D811D911DA11DBE
:100C100020D009F468943F912AE0269F11243019CE
:100C2000305D3193DEF6CF010895462F4770405D69
:100C30004193B3E00FD0C9F7F6CF462F4F70405D18
:100C40004A3318F0495D31FD4052419302D0A9F773
:100C5000EACFB4E0A6959795879577956795BA956D
:100C6000C9F700976105710508959B01AC010A2E33
:100C700006945795479537952795BA95C9F7620F0A
:100C8000731F841F951FA01D08952F923F924F92AE
:100C90005F926F927F928F929F92AF92BF92CF920C
:100CA000DF92EF92FF920F931F93CF93DF93CDB715
:100CB000DEB7CA1BDB0B0FB6F894DEBF0FBECDBF8D
:100CC00009942A88398848885F846E847D848C845E
:100CD0009B84AA84B984C884DF80EE80FD800C8167
:100CE0001B81AA81B981CE0FD11D0FB6F894DEBF4A
:0C0CF0000FBECDBFED010895F894FFCFBA
:100CFC000300020005004F6E204C4344000000002E
:100D0C0000000000000000000000000000000000D7
:100D1C000000000000004D6F76653A20256400311C
:100D2C003A25346420323A2534640041542B43492B
:100D3C005053544152543D302C22544350222C22B7
:100D4C003139322E3136382E34332E323431222C86
:100D5C00343530300D0A0041542B43495053454E25
:100D6C00443D302C31350D0A00474554202F63612A
:100D7C0072742F25640D0A0041542B434950434C87
:100D8C004F53450D0A0041540D0A0041542B434961
:100D9C00504D4F44453D300D0A0041542B434950B2
:080DAC004D55583D310D0A00C0
:00000001FF
